{
  "_format": "hh-sol-artifact-1",
  "contractName": "Story",
  "sourceName": "contracts/Story.sol",
  "abi": [
    {
      "inputs": [],
      "stateMutability": "nonpayable",
      "type": "constructor"
    },
    {
      "inputs": [],
      "name": "IncorrectEthValue",
      "type": "error"
    },
    {
      "inputs": [],
      "name": "InsufficientBalance",
      "type": "error"
    },
    {
      "inputs": [],
      "name": "InvalidText",
      "type": "error"
    },
    {
      "inputs": [],
      "name": "MoreTextMintRequired",
      "type": "error"
    },
    {
      "inputs": [],
      "name": "NonEOASender",
      "type": "error"
    },
    {
      "inputs": [],
      "name": "NonExistentToken",
      "type": "error"
    },
    {
      "inputs": [],
      "name": "TextWithoutParent",
      "type": "error"
    },
    {
      "inputs": [],
      "name": "UnauthorizedWithdraw",
      "type": "error"
    },
    {
      "inputs": [],
      "name": "WithdrawFailed",
      "type": "error"
    },
    {
      "anonymous": false,
      "inputs": [
        {
          "indexed": true,
          "internalType": "address",
          "name": "owner",
          "type": "address"
        },
        {
          "indexed": true,
          "internalType": "address",
          "name": "approved",
          "type": "address"
        },
        {
          "indexed": true,
          "internalType": "uint256",
          "name": "tokenId",
          "type": "uint256"
        }
      ],
      "name": "Approval",
      "type": "event"
    },
    {
      "anonymous": false,
      "inputs": [
        {
          "indexed": true,
          "internalType": "address",
          "name": "owner",
          "type": "address"
        },
        {
          "indexed": true,
          "internalType": "address",
          "name": "operator",
          "type": "address"
        },
        {
          "indexed": false,
          "internalType": "bool",
          "name": "approved",
          "type": "bool"
        }
      ],
      "name": "ApprovalForAll",
      "type": "event"
    },
    {
      "anonymous": false,
      "inputs": [
        {
          "indexed": true,
          "internalType": "address",
          "name": "previousOwner",
          "type": "address"
        },
        {
          "indexed": true,
          "internalType": "address",
          "name": "newOwner",
          "type": "address"
        }
      ],
      "name": "OwnershipTransferred",
      "type": "event"
    },
    {
      "anonymous": false,
      "inputs": [
        {
          "indexed": true,
          "internalType": "address",
          "name": "from",
          "type": "address"
        },
        {
          "indexed": true,
          "internalType": "address",
          "name": "to",
          "type": "address"
        },
        {
          "indexed": true,
          "internalType": "uint256",
          "name": "tokenId",
          "type": "uint256"
        }
      ],
      "name": "Transfer",
      "type": "event"
    },
    {
      "inputs": [
        {
          "internalType": "address",
          "name": "to",
          "type": "address"
        },
        {
          "internalType": "uint256",
          "name": "tokenId",
          "type": "uint256"
        }
      ],
      "name": "approve",
      "outputs": [],
      "stateMutability": "nonpayable",
      "type": "function"
    },
    {
      "inputs": [
        {
          "internalType": "address",
          "name": "owner",
          "type": "address"
        }
      ],
      "name": "balanceOf",
      "outputs": [
        {
          "internalType": "uint256",
          "name": "",
          "type": "uint256"
        }
      ],
      "stateMutability": "view",
      "type": "function"
    },
    {
      "inputs": [
        {
          "internalType": "uint256",
          "name": "nextTokenId",
          "type": "uint256"
        }
      ],
      "name": "canMintWithTitle",
      "outputs": [
        {
          "internalType": "bool",
          "name": "",
          "type": "bool"
        }
      ],
      "stateMutability": "view",
      "type": "function"
    },
    {
      "inputs": [
        {
          "internalType": "string",
          "name": "text",
          "type": "string"
        },
        {
          "internalType": "address",
          "name": "creator",
          "type": "address"
        },
        {
          "internalType": "bytes32",
          "name": "title",
          "type": "bytes32"
        }
      ],
      "name": "generateSvg",
      "outputs": [
        {
          "internalType": "string",
          "name": "",
          "type": "string"
        }
      ],
      "stateMutability": "view",
      "type": "function"
    },
    {
      "inputs": [
        {
          "internalType": "string",
          "name": "text",
          "type": "string"
        },
        {
          "internalType": "address",
          "name": "creator",
          "type": "address"
        },
        {
          "internalType": "bytes32",
          "name": "title",
          "type": "bytes32"
        }
      ],
      "name": "generateTextSvg",
      "outputs": [
        {
          "internalType": "string",
          "name": "",
          "type": "string"
        }
      ],
      "stateMutability": "view",
      "type": "function"
    },
    {
      "inputs": [],
      "name": "getAllTokens",
      "outputs": [
        {
          "components": [
            {
              "internalType": "address",
              "name": "creator",
              "type": "address"
            },
            {
              "internalType": "bool",
              "name": "isBeginning",
              "type": "bool"
            },
            {
              "internalType": "bytes32",
              "name": "title",
              "type": "bytes32"
            },
            {
              "internalType": "string",
              "name": "text",
              "type": "string"
            },
            {
              "internalType": "uint256",
              "name": "parentTokenId",
              "type": "uint256"
            },
            {
              "internalType": "uint256",
              "name": "amount",
              "type": "uint256"
            },
            {
              "internalType": "uint256",
              "name": "withdrawn",
              "type": "uint256"
            }
          ],
          "internalType": "struct Story.TokenMetadata[]",
          "name": "",
          "type": "tuple[]"
        }
      ],
      "stateMutability": "view",
      "type": "function"
    },
    {
      "inputs": [
        {
          "internalType": "uint256",
          "name": "tokenId",
          "type": "uint256"
        }
      ],
      "name": "getApproved",
      "outputs": [
        {
          "internalType": "address",
          "name": "",
          "type": "address"
        }
      ],
      "stateMutability": "view",
      "type": "function"
    },
    {
      "inputs": [
        {
          "internalType": "uint256",
          "name": "tokenId",
          "type": "uint256"
        }
      ],
      "name": "getBalanceOf",
      "outputs": [
        {
          "internalType": "uint256",
          "name": "",
          "type": "uint256"
        }
      ],
      "stateMutability": "view",
      "type": "function"
    },
    {
      "inputs": [
        {
          "internalType": "uint256",
          "name": "numberOfChars",
          "type": "uint256"
        }
      ],
      "name": "getMintPrice",
      "outputs": [
        {
          "internalType": "uint256",
          "name": "",
          "type": "uint256"
        }
      ],
      "stateMutability": "pure",
      "type": "function"
    },
    {
      "inputs": [
        {
          "internalType": "uint256",
          "name": "tokenId",
          "type": "uint256"
        }
      ],
      "name": "getTokenAttributes",
      "outputs": [
        {
          "internalType": "bytes",
          "name": "",
          "type": "bytes"
        }
      ],
      "stateMutability": "view",
      "type": "function"
    },
    {
      "inputs": [
        {
          "internalType": "address",
          "name": "owner",
          "type": "address"
        },
        {
          "internalType": "address",
          "name": "operator",
          "type": "address"
        }
      ],
      "name": "isApprovedForAll",
      "outputs": [
        {
          "internalType": "bool",
          "name": "",
          "type": "bool"
        }
      ],
      "stateMutability": "view",
      "type": "function"
    },
    {
      "inputs": [
        {
          "internalType": "string",
          "name": "text",
          "type": "string"
        },
        {
          "internalType": "uint256",
          "name": "parentId",
          "type": "uint256"
        }
      ],
      "name": "mint",
      "outputs": [
        {
          "internalType": "uint256",
          "name": "",
          "type": "uint256"
        }
      ],
      "stateMutability": "payable",
      "type": "function"
    },
    {
      "inputs": [
        {
          "internalType": "bytes32",
          "name": "title",
          "type": "bytes32"
        },
        {
          "internalType": "string",
          "name": "text",
          "type": "string"
        }
      ],
      "name": "mintWithTitle",
      "outputs": [
        {
          "internalType": "uint256",
          "name": "",
          "type": "uint256"
        }
      ],
      "stateMutability": "payable",
      "type": "function"
    },
    {
      "inputs": [],
      "name": "name",
      "outputs": [
        {
          "internalType": "string",
          "name": "",
          "type": "string"
        }
      ],
      "stateMutability": "view",
      "type": "function"
    },
    {
      "inputs": [],
      "name": "numberOfMintRequiredToStartStory",
      "outputs": [
        {
          "internalType": "uint256",
          "name": "",
          "type": "uint256"
        }
      ],
      "stateMutability": "view",
      "type": "function"
    },
    {
      "inputs": [],
      "name": "owner",
      "outputs": [
        {
          "internalType": "address",
          "name": "",
          "type": "address"
        }
      ],
      "stateMutability": "view",
      "type": "function"
    },
    {
      "inputs": [
        {
          "internalType": "uint256",
          "name": "tokenId",
          "type": "uint256"
        }
      ],
      "name": "ownerOf",
      "outputs": [
        {
          "internalType": "address",
          "name": "",
          "type": "address"
        }
      ],
      "stateMutability": "view",
      "type": "function"
    },
    {
      "inputs": [],
      "name": "pricePerChar",
      "outputs": [
        {
          "internalType": "uint256",
          "name": "",
          "type": "uint256"
        }
      ],
      "stateMutability": "view",
      "type": "function"
    },
    {
      "inputs": [],
      "name": "renounceOwnership",
      "outputs": [],
      "stateMutability": "nonpayable",
      "type": "function"
    },
    {
      "inputs": [
        {
          "internalType": "address",
          "name": "from",
          "type": "address"
        },
        {
          "internalType": "address",
          "name": "to",
          "type": "address"
        },
        {
          "internalType": "uint256",
          "name": "tokenId",
          "type": "uint256"
        }
      ],
      "name": "safeTransferFrom",
      "outputs": [],
      "stateMutability": "nonpayable",
      "type": "function"
    },
    {
      "inputs": [
        {
          "internalType": "address",
          "name": "from",
          "type": "address"
        },
        {
          "internalType": "address",
          "name": "to",
          "type": "address"
        },
        {
          "internalType": "uint256",
          "name": "tokenId",
          "type": "uint256"
        },
        {
          "internalType": "bytes",
          "name": "_data",
          "type": "bytes"
        }
      ],
      "name": "safeTransferFrom",
      "outputs": [],
      "stateMutability": "nonpayable",
      "type": "function"
    },
    {
      "inputs": [
        {
          "internalType": "address",
          "name": "operator",
          "type": "address"
        },
        {
          "internalType": "bool",
          "name": "approved",
          "type": "bool"
        }
      ],
      "name": "setApprovalForAll",
      "outputs": [],
      "stateMutability": "nonpayable",
      "type": "function"
    },
    {
      "inputs": [
        {
          "internalType": "bytes4",
          "name": "interfaceId",
          "type": "bytes4"
        }
      ],
      "name": "supportsInterface",
      "outputs": [
        {
          "internalType": "bool",
          "name": "",
          "type": "bool"
        }
      ],
      "stateMutability": "view",
      "type": "function"
    },
    {
      "inputs": [],
      "name": "symbol",
      "outputs": [
        {
          "internalType": "string",
          "name": "",
          "type": "string"
        }
      ],
      "stateMutability": "view",
      "type": "function"
    },
    {
      "inputs": [
        {
          "internalType": "uint256",
          "name": "tokenId",
          "type": "uint256"
        }
      ],
      "name": "tokenURI",
      "outputs": [
        {
          "internalType": "string",
          "name": "",
          "type": "string"
        }
      ],
      "stateMutability": "view",
      "type": "function"
    },
    {
      "inputs": [
        {
          "internalType": "address",
          "name": "from",
          "type": "address"
        },
        {
          "internalType": "address",
          "name": "to",
          "type": "address"
        },
        {
          "internalType": "uint256",
          "name": "tokenId",
          "type": "uint256"
        }
      ],
      "name": "transferFrom",
      "outputs": [],
      "stateMutability": "nonpayable",
      "type": "function"
    },
    {
      "inputs": [
        {
          "internalType": "address",
          "name": "newOwner",
          "type": "address"
        }
      ],
      "name": "transferOwnership",
      "outputs": [],
      "stateMutability": "nonpayable",
      "type": "function"
    },
    {
      "inputs": [
        {
          "internalType": "uint256",
          "name": "tokenId",
          "type": "uint256"
        },
        {
          "internalType": "uint256",
          "name": "amount",
          "type": "uint256"
        }
      ],
      "name": "withdraw",
      "outputs": [],
      "stateMutability": "nonpayable",
      "type": "function"
    }
  ],
  "bytecode": "0x60806040523480156200001157600080fd5b506040518060400160405280600581526020017f53746f72790000000000000000000000000000000000000000000000000000008152506040518060400160405280600581526020017f53544f5259000000000000000000000000000000000000000000000000000000815250816000908051906020019062000096929190620001ae565b508060019080519060200190620000af929190620001ae565b505050620000d2620000c6620000e060201b60201c565b620000e860201b60201c565b6001600781905550620002c3565b600033905090565b6000600660009054906101000a900473ffffffffffffffffffffffffffffffffffffffff16905081600660006101000a81548173ffffffffffffffffffffffffffffffffffffffff021916908373ffffffffffffffffffffffffffffffffffffffff1602179055508173ffffffffffffffffffffffffffffffffffffffff168173ffffffffffffffffffffffffffffffffffffffff167f8be0079c531659141344cd1fd0a4f28419497f9722a3daafe3b4186f6b6457e060405160405180910390a35050565b828054620001bc906200025e565b90600052602060002090601f016020900481019282620001e057600085556200022c565b82601f10620001fb57805160ff19168380011785556200022c565b828001600101855582156200022c579182015b828111156200022b5782518255916020019190600101906200020e565b5b5090506200023b91906200023f565b5090565b5b808211156200025a57600081600090555060010162000240565b5090565b600060028204905060018216806200027757607f821691505b602082108114156200028e576200028d62000294565b5b50919050565b7f4e487b7100000000000000000000000000000000000000000000000000000000600052602260045260246000fd5b6152db80620002d36000396000f3fe60806040526004361061019b5760003560e01c80636352211e116100ec578063a22cb4651161008a578063bc921dc211610064578063bc921dc2146105e5578063c87b56dd14610622578063e985e9c51461065f578063f2fde38b1461069c5761019b565b8063a22cb46514610556578063b2aae0051461057f578063b88d4fde146105bc5761019b565b80637550ae63116100c65780637550ae63146104aa5780638aa25672146104d55780638da5cb5b1461050057806395d89b411461052b5761019b565b80636352211e1461041957806370a0823114610456578063715018a6146104935761019b565b80631f4f5a2311610159578063416e42a411610133578063416e42a41461035f57806342842e0e1461038a578063441a3e70146103b3578063559e775b146103dc5761019b565b80631f4f5a23146102ce57806323b872dd1461030b5780632a5c792a146103345761019b565b8062257612146101a057806301ffc9a7146101d057806306fdde031461020d578063081812fc14610238578063095ea7b3146102755780631ddc4b711461029e575b600080fd5b6101ba60048036038101906101b591906136eb565b6106c5565b6040516101c79190614492565b60405180910390f35b3480156101dc57600080fd5b506101f760048036038101906101f29190613699565b610aaa565b6040516102049190614251565b60405180910390f35b34801561021957600080fd5b50610222610b8c565b60405161022f91906142b0565b60405180910390f35b34801561024457600080fd5b5061025f600480360381019061025a9190613780565b610c1e565b60405161026c91906141c8565b60405180910390f35b34801561028157600080fd5b5061029c60048036038101906102979190613609565b610c64565b005b6102b860048036038101906102b39190613645565b610d7c565b6040516102c59190614492565b60405180910390f35b3480156102da57600080fd5b506102f560048036038101906102f09190613780565b6110e2565b604051610302919061428e565b60405180910390f35b34801561031757600080fd5b50610332600480360381019061032d9190613503565b61136e565b005b34801561034057600080fd5b506103496113ce565b604051610356919061422f565b60405180910390f35b34801561036b57600080fd5b50610374611558565b6040516103819190614492565b60405180910390f35b34801561039657600080fd5b506103b160048036038101906103ac9190613503565b611563565b005b3480156103bf57600080fd5b506103da60048036038101906103d591906137d2565b611583565b005b3480156103e857600080fd5b5061040360048036038101906103fe9190613780565b61186a565b6040516104109190614492565b60405180910390f35b34801561042557600080fd5b50610440600480360381019061043b9190613780565b611884565b60405161044d91906141c8565b60405180910390f35b34801561046257600080fd5b5061047d6004803603810190610478919061349e565b611936565b60405161048a9190614492565b60405180910390f35b34801561049f57600080fd5b506104a86119ee565b005b3480156104b657600080fd5b506104bf611a02565b6040516104cc9190614492565b60405180910390f35b3480156104e157600080fd5b506104ea611a08565b6040516104f79190614492565b60405180910390f35b34801561050c57600080fd5b50610515611a0d565b60405161052291906141c8565b60405180910390f35b34801561053757600080fd5b50610540611a37565b60405161054d91906142b0565b60405180910390f35b34801561056257600080fd5b5061057d600480360381019061057891906135cd565b611ac9565b005b34801561058b57600080fd5b506105a660048036038101906105a19190613780565b611adf565b6040516105b39190614492565b60405180910390f35b3480156105c857600080fd5b506105e360048036038101906105de9190613552565b611d53565b005b3480156105f157600080fd5b5061060c60048036038101906106079190613780565b611db5565b60405161061991906142b0565b60405180910390f35b34801561062e57600080fd5b5061064960048036038101906106449190613780565b611fe0565b60405161065691906142b0565b60405180910390f35b34801561066b57600080fd5b50610686600480360381019061068191906134c7565b61208b565b6040516106939190614251565b60405180910390f35b3480156106a857600080fd5b506106c360048036038101906106be919061349e565b61211f565b005b60006002600754141561070d576040517f08c379a000000000000000000000000000000000000000000000000000000000815260040161070490614472565b60405180910390fd5b6002600781905550600073__$7481ba9d958a8dd8ef3f2e538c165f711b$__63341d5161856040518263ffffffff1660e01b815260040161074e919061426c565b60206040518083038186803b15801561076657600080fd5b505af415801561077a573d6000803e3d6000fd5b505050506040513d601f19601f8201168201806040525081019061079e91906137a9565b90506107a9836121a3565b6107df576040517f9430a17e00000000000000000000000000000000000000000000000000000000815260040160405180910390fd5b61011881111561081b576040517f5a14fd2f00000000000000000000000000000000000000000000000000000000815260040160405180910390fd5b34816601c6bf5263400061082f9190614664565b14610866576040517fab0a033b00000000000000000000000000000000000000000000000000000000815260040160405180910390fd5b600883815481106108a0577f4e487b7100000000000000000000000000000000000000000000000000000000600052603260045260246000fd5b906000526020600020906006020160000160149054906101000a900460ff166108f5576040517f3d094f0c00000000000000000000000000000000000000000000000000000000815260040160405180910390fd5b3373ffffffffffffffffffffffffffffffffffffffff163273ffffffffffffffffffffffffffffffffffffffff161461095a576040517fa397a6e500000000000000000000000000000000000000000000000000000000815260040160405180910390fd5b6000600880549050905060086040518060e001604052803373ffffffffffffffffffffffffffffffffffffffff1681526020016000151581526020016000801b81526020018781526020018681526020013481526020016000815250908060018154018082558091505060019003906000526020600020906006020160009091909190915060008201518160000160006101000a81548173ffffffffffffffffffffffffffffffffffffffff021916908373ffffffffffffffffffffffffffffffffffffffff16021790555060208201518160000160146101000a81548160ff021916908315150217905550604082015181600101556060820151816002019080519060200190610a6c92919061320b565b506080820151816003015560a0820151816004015560c082015181600501555050610a97338261220f565b8092505050600160078190555092915050565b60007f80ac58cd000000000000000000000000000000000000000000000000000000007bffffffffffffffffffffffffffffffffffffffffffffffffffffffff1916827bffffffffffffffffffffffffffffffffffffffffffffffffffffffff19161480610b7557507f5b5e139f000000000000000000000000000000000000000000000000000000007bffffffffffffffffffffffffffffffffffffffffffffffffffffffff1916827bffffffffffffffffffffffffffffffffffffffffffffffffffffffff1916145b80610b855750610b848261222d565b5b9050919050565b606060008054610b9b906147b2565b80601f0160208091040260200160405190810160405280929190818152602001828054610bc7906147b2565b8015610c145780601f10610be957610100808354040283529160200191610c14565b820191906000526020600020905b815481529060010190602001808311610bf757829003601f168201915b5050505050905090565b6000610c2982612297565b6004600083815260200190815260200160002060009054906101000a900473ffffffffffffffffffffffffffffffffffffffff169050919050565b6000610c6f82611884565b90508073ffffffffffffffffffffffffffffffffffffffff168373ffffffffffffffffffffffffffffffffffffffff161415610ce0576040517f08c379a0000000000000000000000000000000000000000000000000000000008152600401610cd790614432565b60405180910390fd5b8073ffffffffffffffffffffffffffffffffffffffff16610cff6122e2565b73ffffffffffffffffffffffffffffffffffffffff161480610d2e5750610d2d81610d286122e2565b61208b565b5b610d6d576040517f08c379a0000000000000000000000000000000000000000000000000000000008152600401610d64906143b2565b60405180910390fd5b610d7783836122ea565b505050565b600060026007541415610dc4576040517f08c379a0000000000000000000000000000000000000000000000000000000008152600401610dbb90614472565b60405180910390fd5b6002600781905550600073__$7481ba9d958a8dd8ef3f2e538c165f711b$__63341d5161846040518263ffffffff1660e01b8152600401610e05919061426c565b60206040518083038186803b158015610e1d57600080fd5b505af4158015610e31573d6000803e3d6000fd5b505050506040513d601f19601f82011682018060405250810190610e5591906137a9565b9050610118811115610e93576040517f5a14fd2f00000000000000000000000000000000000000000000000000000000815260040160405180910390fd5b34816601c6bf52634000610ea79190614664565b14610ede576040517fab0a033b00000000000000000000000000000000000000000000000000000000815260040160405180910390fd5b3373ffffffffffffffffffffffffffffffffffffffff163273ffffffffffffffffffffffffffffffffffffffff1614610f43576040517fa397a6e500000000000000000000000000000000000000000000000000000000815260040160405180910390fd5b6000600880549050905060008114610f9f576000610f6033611936565b9050600a811015610f9d576040517f04ae09a900000000000000000000000000000000000000000000000000000000815260040160405180910390fd5b505b60086040518060e001604052803373ffffffffffffffffffffffffffffffffffffffff1681526020016001151581526020018781526020018681526020018381526020013481526020016000815250908060018154018082558091505060019003906000526020600020906006020160009091909190915060008201518160000160006101000a81548173ffffffffffffffffffffffffffffffffffffffff021916908373ffffffffffffffffffffffffffffffffffffffff16021790555060208201518160000160146101000a81548160ff0219169083151502179055506040820151816001015560608201518160020190805190602001906110a492919061320b565b506080820151816003015560a0820151816004015560c0820151816005015550506110cf338261220f565b8092505050600160078190555092915050565b60606110ed826121a3565b611123576040517f9430a17e00000000000000000000000000000000000000000000000000000000815260040160405180910390fd5b60006008838154811061115f577f4e487b7100000000000000000000000000000000000000000000000000000000600052603260045260246000fd5b90600052602060002090600602016040518060e00160405290816000820160009054906101000a900473ffffffffffffffffffffffffffffffffffffffff1673ffffffffffffffffffffffffffffffffffffffff1673ffffffffffffffffffffffffffffffffffffffff1681526020016000820160149054906101000a900460ff1615151515815260200160018201548152602001600282018054611203906147b2565b80601f016020809104026020016040519081016040528092919081815260200182805461122f906147b2565b801561127c5780601f106112515761010080835404028352916020019161127c565b820191906000526020600020905b81548152906001019060200180831161125f57829003601f168201915b50505050508152602001600382015481526020016004820154815260200160058201548152505090506112b38382600001516123a3565b61134673__$7481ba9d958a8dd8ef3f2e538c165f711b$__63341d516184606001516040518263ffffffff1660e01b81526004016112f1919061426c565b60206040518083038186803b15801561130957600080fd5b505af415801561131d573d6000803e3d6000fd5b505050506040513d601f19601f8201168201806040525081019061134191906137a9565b6124bc565b60405160200161135792919061410f565b604051602081830303815290604052915050919050565b61137f6113796122e2565b82612669565b6113be576040517f08c379a00000000000000000000000000000000000000000000000000000000081526004016113b590614452565b60405180910390fd5b6113c98383836126fe565b505050565b60606008805480602002602001604051908101604052809291908181526020016000905b8282101561154f57838290600052602060002090600602016040518060e00160405290816000820160009054906101000a900473ffffffffffffffffffffffffffffffffffffffff1673ffffffffffffffffffffffffffffffffffffffff1673ffffffffffffffffffffffffffffffffffffffff1681526020016000820160149054906101000a900460ff16151515158152602001600182015481526020016002820180546114a0906147b2565b80601f01602080910402602001604051908101604052809291908181526020018280546114cc906147b2565b80156115195780601f106114ee57610100808354040283529160200191611519565b820191906000526020600020905b8154815290600101906020018083116114fc57829003601f168201915b505050505081526020016003820154815260200160048201548152602001600582015481525050815260200190600101906113f2565b50505050905090565b6601c6bf5263400081565b61157e83838360405180602001604052806000815250611d53565b505050565b8061158d83611adf565b10156115c5576040517ff4d678b800000000000000000000000000000000000000000000000000000000815260040160405180910390fd5b3373ffffffffffffffffffffffffffffffffffffffff166115e583611884565b73ffffffffffffffffffffffffffffffffffffffff1614611632576040517f8e9f3afc00000000000000000000000000000000000000000000000000000000815260040160405180910390fd5b60006008838154811061166e577f4e487b7100000000000000000000000000000000000000000000000000000000600052603260045260246000fd5b906000526020600020906006020190508181600501600082825461169291906145dd565b9250508190555080600884815481106116d4577f4e487b7100000000000000000000000000000000000000000000000000000000600052603260045260246000fd5b90600052602060002090600602016000820160009054906101000a900473ffffffffffffffffffffffffffffffffffffffff168160000160006101000a81548173ffffffffffffffffffffffffffffffffffffffff021916908373ffffffffffffffffffffffffffffffffffffffff1602179055506000820160149054906101000a900460ff168160000160146101000a81548160ff021916908315150217905550600182015481600101556002820181600201908054611794906147b2565b61179f929190613291565b5060038201548160030155600482015481600401556005820154816005015590505060003373ffffffffffffffffffffffffffffffffffffffff16836040516117e790614176565b60006040518083038185875af1925050503d8060008114611824576040519150601f19603f3d011682016040523d82523d6000602084013e611829565b606091505b5050905080611864576040517f750b219c00000000000000000000000000000000000000000000000000000000815260040160405180910390fd5b50505050565b600061187d826601c6bf52634000612965565b9050919050565b6000806002600084815260200190815260200160002060009054906101000a900473ffffffffffffffffffffffffffffffffffffffff169050600073ffffffffffffffffffffffffffffffffffffffff168173ffffffffffffffffffffffffffffffffffffffff16141561192d576040517f08c379a000000000000000000000000000000000000000000000000000000000815260040161192490614412565b60405180910390fd5b80915050919050565b60008073ffffffffffffffffffffffffffffffffffffffff168273ffffffffffffffffffffffffffffffffffffffff1614156119a7576040517f08c379a000000000000000000000000000000000000000000000000000000000815260040161199e90614392565b60405180910390fd5b600360008373ffffffffffffffffffffffffffffffffffffffff1673ffffffffffffffffffffffffffffffffffffffff168152602001908152602001600020549050919050565b6119f661297b565b611a0060006129f9565b565b61011881565b600a81565b6000600660009054906101000a900473ffffffffffffffffffffffffffffffffffffffff16905090565b606060018054611a46906147b2565b80601f0160208091040260200160405190810160405280929190818152602001828054611a72906147b2565b8015611abf5780601f10611a9457610100808354040283529160200191611abf565b820191906000526020600020905b815481529060010190602001808311611aa257829003601f168201915b5050505050905090565b611adb611ad46122e2565b8383612abf565b5050565b6000611aea826121a3565b611b20576040517f9430a17e00000000000000000000000000000000000000000000000000000000815260040160405180910390fd5b60008060088481548110611b5d577f4e487b7100000000000000000000000000000000000000000000000000000000600052603260045260246000fd5b90600052602060002090600602016040518060e00160405290816000820160009054906101000a900473ffffffffffffffffffffffffffffffffffffffff1673ffffffffffffffffffffffffffffffffffffffff1673ffffffffffffffffffffffffffffffffffffffff1681526020016000820160149054906101000a900460ff1615151515815260200160018201548152602001600282018054611c01906147b2565b80601f0160208091040260200160405190810160405280929190818152602001828054611c2d906147b2565b8015611c7a5780601f10611c4f57610100808354040283529160200191611c7a565b820191906000526020600020905b815481529060010190602001808311611c5d57829003601f168201915b505050505081526020016003820154815260200160048201548152602001600582015481525050905060008490505b600880549050811015611d3957600181611cc391906145dd565b60088281548110611cfd577f4e487b7100000000000000000000000000000000000000000000000000000000600052603260045260246000fd5b906000526020600020906006020160040154611d199190614633565b83611d2491906145dd565b92508080611d3190614815565b915050611ca9565b508060c0015182611d4a91906146be565b92505050919050565b611d64611d5e6122e2565b83612669565b611da3576040517f08c379a0000000000000000000000000000000000000000000000000000000008152600401611d9a90614452565b60405180910390fd5b611daf84848484612c2c565b50505050565b6060611dc0826121a3565b611df6576040517f9430a17e00000000000000000000000000000000000000000000000000000000815260040160405180910390fd5b600060088381548110611e32577f4e487b7100000000000000000000000000000000000000000000000000000000600052603260045260246000fd5b90600052602060002090600602016040518060e00160405290816000820160009054906101000a900473ffffffffffffffffffffffffffffffffffffffff1673ffffffffffffffffffffffffffffffffffffffff1673ffffffffffffffffffffffffffffffffffffffff1681526020016000820160149054906101000a900460ff1615151515815260200160018201548152602001600282018054611ed6906147b2565b80601f0160208091040260200160405190810160405280929190818152602001828054611f02906147b2565b8015611f4f5780601f10611f2457610100808354040283529160200191611f4f565b820191906000526020600020905b815481529060010190602001808311611f3257829003601f168201915b505050505081526020016003820154815260200160048201548152602001600582015481525050905060008160600151611f8d8584600001516123a3565b604051602001611f9e929190613fff565b6040516020818303038152906040529050611fb881612c88565b604051602001611fc8919061418b565b60405160208183030381529060405292505050919050565b6060611feb826121a3565b612021576040517f9430a17e00000000000000000000000000000000000000000000000000000000815260040160405180910390fd5b61206561202d836124bc565b61203684611db5565b61203f856110e2565b60405160200161205193929190614086565b604051602081830303815290604052612c88565b6040516020016120759190614154565b6040516020818303038152906040529050919050565b6000600560008473ffffffffffffffffffffffffffffffffffffffff1673ffffffffffffffffffffffffffffffffffffffff16815260200190815260200160002060008373ffffffffffffffffffffffffffffffffffffffff1673ffffffffffffffffffffffffffffffffffffffff16815260200190815260200160002060009054906101000a900460ff16905092915050565b61212761297b565b600073ffffffffffffffffffffffffffffffffffffffff168173ffffffffffffffffffffffffffffffffffffffff161415612197576040517f08c379a000000000000000000000000000000000000000000000000000000000815260040161218e906142f2565b60405180910390fd5b6121a0816129f9565b50565b60008073ffffffffffffffffffffffffffffffffffffffff166002600084815260200190815260200160002060009054906101000a900473ffffffffffffffffffffffffffffffffffffffff1673ffffffffffffffffffffffffffffffffffffffff1614159050919050565b612229828260405180602001604052806000815250612e12565b5050565b60007f01ffc9a7000000000000000000000000000000000000000000000000000000007bffffffffffffffffffffffffffffffffffffffffffffffffffffffff1916827bffffffffffffffffffffffffffffffffffffffffffffffffffffffff1916149050919050565b6122a0816121a3565b6122df576040517f08c379a00000000000000000000000000000000000000000000000000000000081526004016122d690614412565b60405180910390fd5b50565b600033905090565b816004600083815260200190815260200160002060006101000a81548173ffffffffffffffffffffffffffffffffffffffff021916908373ffffffffffffffffffffffffffffffffffffffff160217905550808273ffffffffffffffffffffffffffffffffffffffff1661235d83611884565b73ffffffffffffffffffffffffffffffffffffffff167f8c5be1e5ebec7d5bd14f71427d1e84f3dd0314c0f7b2291e5b200ac8c7c3b92560405160405180910390a45050565b60606123ae836121a3565b6123e4576040517f9430a17e00000000000000000000000000000000000000000000000000000000815260040160405180910390fd5b600060405180602001604052806000815250905060008151116124b15773__$7481ba9d958a8dd8ef3f2e538c165f711b$__632c6e7598846040518263ffffffff1660e01b815260040161243891906141ad565b60006040518083038186803b15801561245057600080fd5b505af4158015612464573d6000803e3d6000fd5b505050506040513d6000823e3d601f19601f8201168201806040525081019061248d919061373f565b60405160200161249d9190613fdd565b6040516020818303038152906040526124b3565b805b91505092915050565b60606000821415612504576040518060400160405280600181526020017f30000000000000000000000000000000000000000000000000000000000000008152509050612664565b600082905060005b6000821461253657808061251f90614815565b915050600a8261252f9190614633565b915061250c565b60008167ffffffffffffffff811115612578577f4e487b7100000000000000000000000000000000000000000000000000000000600052604160045260246000fd5b6040519080825280601f01601f1916602001820160405280156125aa5781602001600182028036833780820191505090505b5090505b6000851461265d576001826125c391906146be565b9150600a856125d2919061485e565b60306125de91906145dd565b60f81b81838151811061261a577f4e487b7100000000000000000000000000000000000000000000000000000000600052603260045260246000fd5b60200101907effffffffffffffffffffffffffffffffffffffffffffffffffffffffffffff1916908160001a905350600a856126569190614633565b94506125ae565b8093505050505b919050565b60008061267583611884565b90508073ffffffffffffffffffffffffffffffffffffffff168473ffffffffffffffffffffffffffffffffffffffff1614806126b757506126b6818561208b565b5b806126f557508373ffffffffffffffffffffffffffffffffffffffff166126dd84610c1e565b73ffffffffffffffffffffffffffffffffffffffff16145b91505092915050565b8273ffffffffffffffffffffffffffffffffffffffff1661271e82611884565b73ffffffffffffffffffffffffffffffffffffffff1614612774576040517f08c379a000000000000000000000000000000000000000000000000000000000815260040161276b90614312565b60405180910390fd5b600073ffffffffffffffffffffffffffffffffffffffff168273ffffffffffffffffffffffffffffffffffffffff1614156127e4576040517f08c379a00000000000000000000000000000000000000000000000000000000081526004016127db90614352565b60405180910390fd5b6127ef838383612e6d565b6127fa6000826122ea565b6001600360008573ffffffffffffffffffffffffffffffffffffffff1673ffffffffffffffffffffffffffffffffffffffff168152602001908152602001600020600082825461284a91906146be565b925050819055506001600360008473ffffffffffffffffffffffffffffffffffffffff1673ffffffffffffffffffffffffffffffffffffffff16815260200190815260200160002060008282546128a191906145dd565b92505081905550816002600083815260200190815260200160002060006101000a81548173ffffffffffffffffffffffffffffffffffffffff021916908373ffffffffffffffffffffffffffffffffffffffff160217905550808273ffffffffffffffffffffffffffffffffffffffff168473ffffffffffffffffffffffffffffffffffffffff167fddf252ad1be2c89b69c2b068fc378daa952ba7f163c4a11628f55a4df523b3ef60405160405180910390a4612960838383612e72565b505050565b600081836129739190614664565b905092915050565b6129836122e2565b73ffffffffffffffffffffffffffffffffffffffff166129a1611a0d565b73ffffffffffffffffffffffffffffffffffffffff16146129f7576040517f08c379a00000000000000000000000000000000000000000000000000000000081526004016129ee906143f2565b60405180910390fd5b565b6000600660009054906101000a900473ffffffffffffffffffffffffffffffffffffffff16905081600660006101000a81548173ffffffffffffffffffffffffffffffffffffffff021916908373ffffffffffffffffffffffffffffffffffffffff1602179055508173ffffffffffffffffffffffffffffffffffffffff168173ffffffffffffffffffffffffffffffffffffffff167f8be0079c531659141344cd1fd0a4f28419497f9722a3daafe3b4186f6b6457e060405160405180910390a35050565b8173ffffffffffffffffffffffffffffffffffffffff168373ffffffffffffffffffffffffffffffffffffffff161415612b2e576040517f08c379a0000000000000000000000000000000000000000000000000000000008152600401612b2590614372565b60405180910390fd5b80600560008573ffffffffffffffffffffffffffffffffffffffff1673ffffffffffffffffffffffffffffffffffffffff16815260200190815260200160002060008473ffffffffffffffffffffffffffffffffffffffff1673ffffffffffffffffffffffffffffffffffffffff16815260200190815260200160002060006101000a81548160ff0219169083151502179055508173ffffffffffffffffffffffffffffffffffffffff168373ffffffffffffffffffffffffffffffffffffffff167f17307eab39ab6107e8899845ad3d59bd9653f200f220920489ca2b5937696c3183604051612c1f9190614251565b60405180910390a3505050565b612c378484846126fe565b612c4384848484612e77565b612c82576040517f08c379a0000000000000000000000000000000000000000000000000000000008152600401612c79906142d2565b60405180910390fd5b50505050565b6060600082511415612cab57604051806020016040528060008152509050612e0d565b60006040518060600160405280604081526020016152666040913990506000600360028551612cda91906145dd565b612ce49190614633565b6004612cf09190614664565b67ffffffffffffffff811115612d2f577f4e487b7100000000000000000000000000000000000000000000000000000000600052604160045260246000fd5b6040519080825280601f01601f191660200182016040528015612d615781602001600182028036833780820191505090505b509050600182016020820185865187015b80821015612dcd576003820191508151603f8160121c168501518453600184019350603f81600c1c168501518453600184019350603f8160061c168501518453600184019350603f8116850151845360018401935050612d72565b5050600386510660018114612de95760028114612dfc57612e04565b603d6001830353603d6002830353612e04565b603d60018303535b50505080925050505b919050565b612e1c838361300e565b612e296000848484612e77565b612e68576040517f08c379a0000000000000000000000000000000000000000000000000000000008152600401612e5f906142d2565b60405180910390fd5b505050565b505050565b505050565b6000612e988473ffffffffffffffffffffffffffffffffffffffff166131e8565b15613001578373ffffffffffffffffffffffffffffffffffffffff1663150b7a02612ec16122e2565b8786866040518563ffffffff1660e01b8152600401612ee394939291906141e3565b602060405180830381600087803b158015612efd57600080fd5b505af1925050508015612f2e57506040513d601f19601f82011682018060405250810190612f2b91906136c2565b60015b612fb1573d8060008114612f5e576040519150601f19603f3d011682016040523d82523d6000602084013e612f63565b606091505b50600081511415612fa9576040517f08c379a0000000000000000000000000000000000000000000000000000000008152600401612fa0906142d2565b60405180910390fd5b805181602001fd5b63150b7a0260e01b7bffffffffffffffffffffffffffffffffffffffffffffffffffffffff1916817bffffffffffffffffffffffffffffffffffffffffffffffffffffffff191614915050613006565b600190505b949350505050565b600073ffffffffffffffffffffffffffffffffffffffff168273ffffffffffffffffffffffffffffffffffffffff16141561307e576040517f08c379a0000000000000000000000000000000000000000000000000000000008152600401613075906143d2565b60405180910390fd5b613087816121a3565b156130c7576040517f08c379a00000000000000000000000000000000000000000000000000000000081526004016130be90614332565b60405180910390fd5b6130d360008383612e6d565b6001600360008473ffffffffffffffffffffffffffffffffffffffff1673ffffffffffffffffffffffffffffffffffffffff168152602001908152602001600020600082825461312391906145dd565b92505081905550816002600083815260200190815260200160002060006101000a81548173ffffffffffffffffffffffffffffffffffffffff021916908373ffffffffffffffffffffffffffffffffffffffff160217905550808273ffffffffffffffffffffffffffffffffffffffff16600073ffffffffffffffffffffffffffffffffffffffff167fddf252ad1be2c89b69c2b068fc378daa952ba7f163c4a11628f55a4df523b3ef60405160405180910390a46131e460008383612e72565b5050565b6000808273ffffffffffffffffffffffffffffffffffffffff163b119050919050565b828054613217906147b2565b90600052602060002090601f0160209004810192826132395760008555613280565b82601f1061325257805160ff1916838001178555613280565b82800160010185558215613280579182015b8281111561327f578251825591602001919060010190613264565b5b50905061328d919061331e565b5090565b82805461329d906147b2565b90600052602060002090601f0160209004810192826132bf576000855561330d565b82601f106132d0578054855561330d565b8280016001018555821561330d57600052602060002091601f016020900482015b8281111561330c5782548255916001019190600101906132f1565b5b50905061331a919061331e565b5090565b5b8082111561333757600081600090555060010161331f565b5090565b600061334e613349846144d2565b6144ad565b90508281526020810184848401111561336657600080fd5b613371848285614770565b509392505050565b600061338c61338784614503565b6144ad565b9050828152602081018484840111156133a457600080fd5b6133af84828561477f565b509392505050565b6000813590506133c6816151f2565b92915050565b6000813590506133db81615209565b92915050565b6000813590506133f081615220565b92915050565b60008135905061340581615237565b92915050565b60008151905061341a81615237565b92915050565b600082601f83011261343157600080fd5b813561344184826020860161333b565b91505092915050565b600082601f83011261345b57600080fd5b815161346b848260208601613379565b91505092915050565b6000813590506134838161524e565b92915050565b6000815190506134988161524e565b92915050565b6000602082840312156134b057600080fd5b60006134be848285016133b7565b91505092915050565b600080604083850312156134da57600080fd5b60006134e8858286016133b7565b92505060206134f9858286016133b7565b9150509250929050565b60008060006060848603121561351857600080fd5b6000613526868287016133b7565b9350506020613537868287016133b7565b925050604061354886828701613474565b9150509250925092565b6000806000806080858703121561356857600080fd5b6000613576878288016133b7565b9450506020613587878288016133b7565b935050604061359887828801613474565b925050606085013567ffffffffffffffff8111156135b557600080fd5b6135c187828801613420565b91505092959194509250565b600080604083850312156135e057600080fd5b60006135ee858286016133b7565b92505060206135ff858286016133cc565b9150509250929050565b6000806040838503121561361c57600080fd5b600061362a858286016133b7565b925050602061363b85828601613474565b9150509250929050565b6000806040838503121561365857600080fd5b6000613666858286016133e1565b925050602083013567ffffffffffffffff81111561368357600080fd5b61368f85828601613420565b9150509250929050565b6000602082840312156136ab57600080fd5b60006136b9848285016133f6565b91505092915050565b6000602082840312156136d457600080fd5b60006136e28482850161340b565b91505092915050565b600080604083850312156136fe57600080fd5b600083013567ffffffffffffffff81111561371857600080fd5b61372485828601613420565b925050602061373585828601613474565b9150509250929050565b60006020828403121561375157600080fd5b600082015167ffffffffffffffff81111561376b57600080fd5b6137778482850161344a565b91505092915050565b60006020828403121561379257600080fd5b60006137a084828501613474565b91505092915050565b6000602082840312156137bb57600080fd5b60006137c984828501613489565b91505092915050565b600080604083850312156137e557600080fd5b60006137f385828601613474565b925050602061380485828601613474565b9150509250929050565b600061381a8383613f23565b905092915050565b61382b816146f2565b82525050565b61383a816146f2565b82525050565b613849816146f2565b82525050565b600061385a82614544565b6138648185614572565b93508360208202850161387685614534565b8060005b858110156138b25784840389528151613893858261380e565b945061389e83614565565b925060208a0199505060018101905061387a565b50829750879550505050505092915050565b6138cd81614704565b82525050565b6138dc81614704565b82525050565b6138eb81614710565b82525050565b60006138fc8261454f565b6139068185614583565b935061391681856020860161477f565b61391f8161494b565b840191505092915050565b60006139358261454f565b61393f8185614594565b935061394f81856020860161477f565b6139588161494b565b840191505092915050565b600061396e8261454f565b61397881856145a5565b935061398881856020860161477f565b6139918161494b565b840191505092915050565b60006139a78261454f565b6139b181856145b6565b93506139c181856020860161477f565b80840191505092915050565b60006139d88261455a565b6139e281856145c1565b93506139f281856020860161477f565b6139fb8161494b565b840191505092915050565b6000613a118261455a565b613a1b81856145d2565b9350613a2b81856020860161477f565b80840191505092915050565b6000613a44600e836145d2565b9150613a4f8261495c565b600e82019050919050565b6000613a676032836145c1565b9150613a7282614985565b604082019050919050565b6000613a8a6026836145c1565b9150613a95826149d4565b604082019050919050565b6000613aad6002836145d2565b9150613ab882614a23565b600282019050919050565b6000613ad06025836145c1565b9150613adb82614a4c565b604082019050919050565b6000613af3601c836145c1565b9150613afe82614a9b565b602082019050919050565b6000613b166030836145d2565b9150613b2182614ac4565b603082019050919050565b6000613b396002836145d2565b9150613b4482614b13565b600282019050919050565b6000613b5c6062836145d2565b9150613b6782614b3c565b606282019050919050565b6000613b7f6024836145c1565b9150613b8a82614bd7565b604082019050919050565b6000613ba26002836145d2565b9150613bad82614c26565b600282019050919050565b6000613bc56019836145c1565b9150613bd082614c4f565b602082019050919050565b6000613be86053836145d2565b9150613bf382614c78565b605382019050919050565b6000613c0b6003836145d2565b9150613c1682614ced565b600382019050919050565b6000613c2e6029836145c1565b9150613c3982614d16565b604082019050919050565b6000613c516001836145d2565b9150613c5c82614d65565b600182019050919050565b6000613c746007836145d2565b9150613c7f82614d8e565b600782019050919050565b6000613c97603e836145c1565b9150613ca282614db7565b604082019050919050565b6000613cba6020836145c1565b9150613cc582614e06565b602082019050919050565b6000613cdd6001836145d2565b9150613ce882614e2f565b600182019050919050565b6000613d006029836145d2565b9150613d0b82614e58565b602982019050919050565b6000613d236020836145c1565b9150613d2e82614ea7565b602082019050919050565b6000613d466001836145d2565b9150613d5182614ed0565b600182019050919050565b6000613d696018836145c1565b9150613d7482614ef9565b602082019050919050565b6000613d8c6022836145d2565b9150613d9782614f22565b602282019050919050565b6000613daf6021836145c1565b9150613dba82614f71565b604082019050919050565b6000613dd2604a836145d2565b9150613ddd82614fc0565b604a82019050919050565b6000613df5601d836145d2565b9150613e0082615035565b601d82019050919050565b6000613e186010836145d2565b9150613e238261505e565b601082019050919050565b6000613e3b6053836145d2565b9150613e4682615087565b605382019050919050565b6000613e5e6000836145b6565b9150613e69826150fc565b600082019050919050565b6000613e81600a836145d2565b9150613e8c826150ff565b600a82019050919050565b6000613ea4602e836145c1565b9150613eaf82615128565b604082019050919050565b6000613ec7601f836145c1565b9150613ed282615177565b602082019050919050565b6000613eea6006836145d2565b9150613ef5826151a0565b600682019050919050565b6000613f0d601a836145d2565b9150613f18826151c9565b601a82019050919050565b600060e083016000830151613f3b6000860182613822565b506020830151613f4e60208601826138c4565b506040830151613f6160408601826138e2565b5060608301518482036060860152613f7982826138f1565b9150506080830151613f8e6080860182613fbf565b5060a0830151613fa160a0860182613fbf565b5060c0830151613fb460c0860182613fbf565b508091505092915050565b613fc881614766565b82525050565b613fd781614766565b82525050565b6000613fe882613b2c565b9150613ff48284613a06565b915081905092915050565b600061400a82613b4f565b915061401582613dc5565b915061402082613b09565b915061402b82613bdb565b91506140378285613a06565b915061404282613c67565b915061404d82613e2e565b915061405882613b95565b91506140648284613a06565b915061406f82613c67565b915061407a82613edd565b91508190509392505050565b600061409182613d39565b915061409c82613e0b565b91506140a88286613a06565b91506140b382613aa0565b91506140be82613e74565b91506140ca8285613a06565b91506140d582613c44565b91506140e082613a37565b91506140ec828461399c565b91506140f782613c44565b915061410282613cd0565b9150819050949350505050565b600061411a82613d7f565b91506141268285613a06565b915061413182613cf3565b915061413d8284613a06565b915061414882613bfe565b91508190509392505050565b600061415f82613de8565b915061416b8284613a06565b915081905092915050565b600061418182613e51565b9150819050919050565b600061419682613f00565b91506141a28284613a06565b915081905092915050565b60006020820190506141c26000830184613840565b92915050565b60006020820190506141dd6000830184613831565b92915050565b60006080820190506141f86000830187613831565b6142056020830186613831565b6142126040830185613fce565b8181036060830152614224818461392a565b905095945050505050565b60006020820190508181036000830152614249818461384f565b905092915050565b600060208201905061426660008301846138d3565b92915050565b600060208201905081810360008301526142868184613963565b905092915050565b600060208201905081810360008301526142a8818461392a565b905092915050565b600060208201905081810360008301526142ca81846139cd565b905092915050565b600060208201905081810360008301526142eb81613a5a565b9050919050565b6000602082019050818103600083015261430b81613a7d565b9050919050565b6000602082019050818103600083015261432b81613ac3565b9050919050565b6000602082019050818103600083015261434b81613ae6565b9050919050565b6000602082019050818103600083015261436b81613b72565b9050919050565b6000602082019050818103600083015261438b81613bb8565b9050919050565b600060208201905081810360008301526143ab81613c21565b9050919050565b600060208201905081810360008301526143cb81613c8a565b9050919050565b600060208201905081810360008301526143eb81613cad565b9050919050565b6000602082019050818103600083015261440b81613d16565b9050919050565b6000602082019050818103600083015261442b81613d5c565b9050919050565b6000602082019050818103600083015261444b81613da2565b9050919050565b6000602082019050818103600083015261446b81613e97565b9050919050565b6000602082019050818103600083015261448b81613eba565b9050919050565b60006020820190506144a76000830184613fce565b92915050565b60006144b76144c8565b90506144c382826147e4565b919050565b6000604051905090565b600067ffffffffffffffff8211156144ed576144ec61491c565b5b6144f68261494b565b9050602081019050919050565b600067ffffffffffffffff82111561451e5761451d61491c565b5b6145278261494b565b9050602081019050919050565b6000819050602082019050919050565b600081519050919050565b600081519050919050565b600081519050919050565b6000602082019050919050565b600082825260208201905092915050565b600082825260208201905092915050565b600082825260208201905092915050565b600082825260208201905092915050565b600081905092915050565b600082825260208201905092915050565b600081905092915050565b60006145e882614766565b91506145f383614766565b9250827fffffffffffffffffffffffffffffffffffffffffffffffffffffffffffffffff038211156146285761462761488f565b5b828201905092915050565b600061463e82614766565b915061464983614766565b925082614659576146586148be565b5b828204905092915050565b600061466f82614766565b915061467a83614766565b9250817fffffffffffffffffffffffffffffffffffffffffffffffffffffffffffffffff04831182151516156146b3576146b261488f565b5b828202905092915050565b60006146c982614766565b91506146d483614766565b9250828210156146e7576146e661488f565b5b828203905092915050565b60006146fd82614746565b9050919050565b60008115159050919050565b6000819050919050565b60007fffffffff0000000000000000000000000000000000000000000000000000000082169050919050565b600073ffffffffffffffffffffffffffffffffffffffff82169050919050565b6000819050919050565b82818337600083830152505050565b60005b8381101561479d578082015181840152602081019050614782565b838111156147ac576000848401525b50505050565b600060028204905060018216806147ca57607f821691505b602082108114156147de576147dd6148ed565b5b50919050565b6147ed8261494b565b810181811067ffffffffffffffff8211171561480c5761480b61491c565b5b80604052505050565b600061482082614766565b91507fffffffffffffffffffffffffffffffffffffffffffffffffffffffffffffffff8214156148535761485261488f565b5b600182019050919050565b600061486982614766565b915061487483614766565b925082614884576148836148be565b5b828206905092915050565b7f4e487b7100000000000000000000000000000000000000000000000000000000600052601160045260246000fd5b7f4e487b7100000000000000000000000000000000000000000000000000000000600052601260045260246000fd5b7f4e487b7100000000000000000000000000000000000000000000000000000000600052602260045260246000fd5b7f4e487b7100000000000000000000000000000000000000000000000000000000600052604160045260246000fd5b6000601f19601f8301169050919050565b7f22617474726962757465733a2022000000000000000000000000000000000000600082015250565b7f4552433732313a207472616e7366657220746f206e6f6e20455243373231526560008201527f63656976657220696d706c656d656e7465720000000000000000000000000000602082015250565b7f4f776e61626c653a206e6577206f776e657220697320746865207a65726f206160008201527f6464726573730000000000000000000000000000000000000000000000000000602082015250565b7f222c000000000000000000000000000000000000000000000000000000000000600082015250565b7f4552433732313a207472616e736665722066726f6d20696e636f72726563742060008201527f6f776e6572000000000000000000000000000000000000000000000000000000602082015250565b7f4552433732313a20746f6b656e20616c7265616479206d696e74656400000000600082015250565b7f3c726563742077696474683d223130302522206865696768743d22313030252260008201527f2066696c6c3d22626c61636b22202f3e00000000000000000000000000000000602082015250565b7f3078000000000000000000000000000000000000000000000000000000000000600082015250565b7f3c73766720786d6c6e733d22687474703a2f2f7777772e77332e6f72672f323060008201527f30302f73766722207072657365727665417370656374526174696f3d22784d6960208201527f6e594d696e206d656574222076696577426f783d22302030203335302033353060408201527f223e000000000000000000000000000000000000000000000000000000000000606082015250565b7f4552433732313a207472616e7366657220746f20746865207a65726f2061646460008201527f7265737300000000000000000000000000000000000000000000000000000000602082015250565b7f2d2d000000000000000000000000000000000000000000000000000000000000600082015250565b7f4552433732313a20617070726f766520746f2063616c6c657200000000000000600082015250565b7f3c7465787420783d223530252220793d223430252220636c6173733d2262617360008201527f652220646f6d696e616e742d626173656c696e653d226d6964646c652220746560208201527f78742d616e63686f723d226d6964646c65223e00000000000000000000000000604082015250565b7f227d5d0000000000000000000000000000000000000000000000000000000000600082015250565b7f4552433732313a2061646472657373207a65726f206973206e6f74206120766160008201527f6c6964206f776e65720000000000000000000000000000000000000000000000602082015250565b7f2200000000000000000000000000000000000000000000000000000000000000600082015250565b7f3c2f746578743e00000000000000000000000000000000000000000000000000600082015250565b7f4552433732313a20617070726f76652063616c6c6572206973206e6f7420746f60008201527f6b656e206f776e6572206e6f7220617070726f76656420666f7220616c6c0000602082015250565b7f4552433732313a206d696e7420746f20746865207a65726f2061646472657373600082015250565b7f7d00000000000000000000000000000000000000000000000000000000000000600082015250565b7f7d2c207b2274726169745f74797065223a22576f726420436f756e74222c202260008201527f76616c7565223a20220000000000000000000000000000000000000000000000602082015250565b7f4f776e61626c653a2063616c6c6572206973206e6f7420746865206f776e6572600082015250565b7f7b00000000000000000000000000000000000000000000000000000000000000600082015250565b7f4552433732313a20696e76616c696420746f6b656e2049440000000000000000600082015250565b7f5b7b2274726169745f74797065223a22417574686f72222c202276616c75652260008201527f3a20000000000000000000000000000000000000000000000000000000000000602082015250565b7f4552433732313a20617070726f76616c20746f2063757272656e74206f776e6560008201527f7200000000000000000000000000000000000000000000000000000000000000602082015250565b7f3c7374796c653e2e62617365207b2066696c6c3a2077686974653b20666f6e7460008201527f2d66616d696c793a2073657269663b20666f6e742d73697a653a20313470783b60208201527f207d3c2f7374796c653e00000000000000000000000000000000000000000000604082015250565b7f646174613a6170706c69636174696f6e2f6a736f6e3b6261736536342c000000600082015250565b7f226e616d65223a202253746f7279202300000000000000000000000000000000600082015250565b7f3c7465787420783d223530252220793d223530252220636c6173733d2262617360008201527f652220646f6d696e616e742d626173656c696e653d226d6964646c652220746560208201527f78742d616e63686f723d226d6964646c65223e00000000000000000000000000604082015250565b50565b7f22696d616765223a202200000000000000000000000000000000000000000000600082015250565b7f4552433732313a2063616c6c6572206973206e6f7420746f6b656e206f776e6560008201527f72206e6f7220617070726f766564000000000000000000000000000000000000602082015250565b7f5265656e7472616e637947756172643a207265656e7472616e742063616c6c00600082015250565b7f3c2f7376673e0000000000000000000000000000000000000000000000000000600082015250565b7f646174613a696d6167652f7376672b786d6c3b6261736536342c000000000000600082015250565b6151fb816146f2565b811461520657600080fd5b50565b61521281614704565b811461521d57600080fd5b50565b61522981614710565b811461523457600080fd5b50565b6152408161471a565b811461524b57600080fd5b50565b61525781614766565b811461526257600080fd5b5056fe4142434445464748494a4b4c4d4e4f505152535455565758595a6162636465666768696a6b6c6d6e6f707172737475767778797a303132333435363738392b2fa264697066735822122055630ca9256b3e44f74dacfd0d78a790617c9e1834ab98c1f4ac80eb54c55eff64736f6c63430008040033",
  "linkReferences": {
    "contracts/StringUtils.sol": {
      "StringUtils": [
        {
          "length": 20,
          "start": 2540
        },
        {
          "length": 20,
          "start": 4259
        },
        {
          "length": 20,
          "start": 5515
        },
        {
          "length": 20,
          "start": 9942
        }
      ]
    }
  },
  "deployedLinkReferences": {
    "contracts/StringUtils.sol": {
      "StringUtils": [
        {
          "length": 20,
          "start": 1817
        },
        {
          "length": 20,
          "start": 3536
        },
        {
          "length": 20,
          "start": 4792
        },
        {
          "length": 20,
          "start": 9219
        }
      ]
    }
  }
}